:100000000428FF3FFF3FFF3FFA300313831693009E
:100010008D258B3083168100831281018B017F3007
:100020008316870083128701063083169F003F30B6
:10003000850083128501D9308316860083128601DC
:10004000A0010130A100F830A200F830A300A40103
:10005000A501A601A701A801A901AA01AB01AC0154
:10006000AD010A30AE00AF010A30B0000030B1007F
:100070000A30B200B3010A30B4000030B5001430C9
:10008000B600B7011430B8000030B900A801280844
:10009000073C031C782828082207F0007008A300FA
:1000A000F0117008A300A4017008BA00BB018C24F1
:1000B0007008A5000130A4002308BA000130BB007D
:1000C0008C247008A6000D30FB00FF30FA00FB0BFB
:1000D0006A286D28FA0B6A286728F330FA00FA0BB1
:1000E0006F2800002808073A03197828A80A47282B
:1000F0000130A8002808083C031CB9282208A300E6
:1001000001302805F1007108013A031D8F28EF30F6
:100110002305F0007008A300DF307005A300F7305E
:100120002305F0007008A300A4017008BA00BB0109
:100130008C247008A5000130A4002308BA00013007
:10014000BB008C247008A6000D30FB00FF30FA00C5
:10015000FB0BAB28AE28FA0BAB28A828F330FA002B
:10016000FA0BB02800002808083A0319B928A80A91
:100170007A28A801A4012308BA00BB018C247008C6
:10018000A5000130A4002308BA000130BB008C2474
:100190007008A6006230FB00FF30FA00FB0BD1288C
:1001A000D428FA0BD128CE282430FA00FA0BD6280E
:1001B00000000000A90A003086190130F100710822
:1001C0000319E628AA0A0319AB0AE828AA01AB0119
:1001D0002B08073C031DEE282A08083C0318F228C8
:1001E0000130AC000730A70001300705F1007108AD
:1001F000003A031DFD280530A7000030851A0130A4
:10020000F1007108003A031D07290430A7000030EF
:1002100085190130F1007108003A031D11290330DE
:10022000A700003005190130F1007108003A031DE4
:100230001B290230A700003085180130F100710839
:10024000003A031D25290130A70001300505F10002
:100250007108003A031D2D29A7010030A61B0130AB
:10026000F2007208003AFF30031D0030F1002D0843
:10027000003AFF30031D0030F0007108F00503194B
:100280004329A61745290130AD002708A8000030F2
:10029000A51B0130F1007108013AFF30031D003049
:1002A000F2000030251B0130F1007108003AFF30E8
:1002B000031D0030F0007008F2050030A61B01306D
:1002C000F1007108013AFF30031D0030F0007008A2
:1002D0007205F1002C08003AFF30031D0030F000D9
:1002E0007108F00503190A2B2808003AFF30031D96
:1002F0000030F2000030291A0130F1007108003A94
:10030000FF30031D0030F0007008F2050030A9191D
:100310000130F1007108003AFF30031D0030F00099
:100320007008F205003029190130F1007108003A17
:10033000FF30031D0030F0007008F2050030A918EE
:100340000130F1007108003AFF30031D0030F00069
:100350007208F0050319AE290130A8002808013CF5
:10036000FF30031C0030F2000030291A0130F10088
:100370007108003AFF30031D0030F0007008F205EC
:100380000030A9190130F1007108003AFF30031D57
:100390000030F0007008F205003029190130F1003A
:1003A0007108003AFF30031D0030F0007008F205BC
:1003B0000030A9180130F1007108013AFF30031D27
:1003C0000030F0007208F0050319E8290230A80097
:1003D0002808023CFF30031C0030F2000030291ACC
:1003E0000130F1007108003AFF30031D0030F000C9
:1003F0007008F2050030A9190130F1007108003AC7
:10040000FF30031D0030F0007008F205003029199C
:100410000130F1007108013AFF30031D0030F00097
:100420007008F2050030A9180130F1007108003A97
:10043000FF30031D0030F0007208F0050319222A76
:100440000330A8002808033CFF30031C0030F200F2
:100450000030291A0130F1007108003AFF30031D05
:100460000030F0007008F2050030A9190130F100E9
:100470007108003AFF30031D0030F0007008F205EB
:10048000003029190130F1007108013AFF30031DD5
:100490000030F0007008F2050030A9180130F100BA
:1004A0007108013AFF30031D0030F0007208F005BA
:1004B00003195C2A0430A8002808043CFF30031C00
:1004C0000030F2000030291A0130F1007108003AC2
:1004D000FF30031D0030F0007008F2050030A9194C
:1004E0000130F1007108013AFF30031D0030F000C7
:1004F0007008F205003029190130F1007108003A46
:10050000FF30031D0030F0007008F2050030A9181C
:100510000130F1007108003AFF30031D0030F00097
:100520007208F0050319962A0530A8002808053C32
:10053000FF30031C0030F2000030291A0130F100B6
:100540007108003AFF30031D0030F0007008F2051A
:100550000030A9190130F1007108013AFF30031D84
:100560000030F0007008F205003029190130F10068
:100570007108003AFF30031D0030F0007008F205EA
:100580000030A9180130F1007108013AFF30031D55
:100590000030F0007208F0050319D02A0630A800D8
:1005A0002808063CFF30031C0030F2000030291AF6
:1005B0000130F1007108003AFF30031D0030F000F7
:1005C0007008F2050030A9190130F1007108013AF4
:1005D000FF30031D0030F0007008F20500302919CB
:1005E0000130F1007108013AFF30031D0030F000C6
:1005F0007008F2050030A9180130F1007108003AC6
:10060000FF30031D0030F0007208F00503190A2BBB
:100610000730A80028082207A3000030A51B0130DE
:10062000F1007108003AFF30031D0030F200003085
:10063000A61B0130F1007108003AFF30031D0030A5
:10064000F00070087204F1002C08003AFF30031D1E
:100650000030F0007008F1052708003CFF30031857
:100660000030F0007108F0050319D92B0030310675
:10067000031D3C2B00303006031DD32B86140030A5
:1006800086190130F1007108013AFF30031D003076
:10069000F2000030A9180130F1007108013AFF3072
:1006A000031D0030F0007208F0050319592B2316C2
:1006B000D22B23120030A9190130F1007108003A41
:1006C000FF30031D0030F200003029190130F10025
:1006D0007108003AFF30031D0030F0007008F20589
:1006E0000030A9180130F1007108003AFF30031DF5
:1006F0000030F0007008F20501302905F1007108A2
:10070000003AFF30031D0030F0007208F0050319B5
:100710008A2B23160030A51B0130F1007108003A26
:10072000FF30031D0030F2000030A61B0130F10045
:100730007108003AFF30031D0030F0007008F20528
:100740000030A9190130F1007108003AFF30031D93
:100750000030F0007008F205003029190130F10076
:100760007108003AFF30031D0030F0007008F205F8
:100770000030A9180130F1007108013AFF30031D63
:100780000030F0007008F20501302905F100710811
:10079000003AFF30031D0030F0007208F005031925
:1007A000D22B2316D72B0130B002031CB103061144
:1007B000DF2B861023162E08B0002F08B100003062
:1007C000A51B0130F1007108013AFF30031D003014
:1007D000F2000030A61B0130F1007108013AFF3031
:1007E000031D0030F0007008F2050030251B0130B9
:1007F000F1007108003AFF30031D0030F00070086E
:100800007205F1002C08003AFF30031D0030F000A3
:100810007008F10507302702FF3003180030F000A0
:100820007108F0050319322C00303506031D1A2C0F
:1008300000303406031D1E2C0615222C0130B40294
:10084000031CB503861000303906031D292C003027
:100850003806031D2D2C8717312C0130B802031CDC
:10086000B9033C2C061187133208B4003308B500D5
:100870003608B8003708B9002C0803194A2C003094
:1008800029190130F10071080319482CA312492CD1
:10089000A3164B2CA3162C08003A031D6B2C00301A
:1008A000A9190130F200003029190130F100710856
:1008B000F2050030A9180130F1007108F20501308D
:1008C0002905F10071087205F0000319692C8616DC
:1008D0006A2C8612752C0030A9180130F1007108BD
:1008E0000319742C8616752C8612A3112C08013A54
:1008F000FF30031D0030F20001300505F1007108E2
:10090000003AFF30031D0030F0007208F0040319B4
:100910008A2C8610BA288B2C03138312BD01C224A3
:1009200001257008003A031DA52C3B08F000F00DCE
:1009300070107008BB0070177008BB007008BD0015
:1009400074253A08BD007425972503138316831276
:10095000BD01C22401257008003A031DBC2C0130E2
:100960003B04F0007008BB007008BD007425BD0199
:100970005A257008BC0097250313831683123C0880
:10098000F0000800023003138312FB00FF30FA006E
:10099000FB0BCB2CCE2CFA0BCB2CC82C0730FA003F
:1009A000FA0BD02C0000941287110130BF003F08D1
:1009B000093C031CED2C2130FA00FA0BDD2C8316C8
:1009C00087112130FA00FA0BE32C871583123F08B8
:1009D000093A0319ED2CBF0AD72C94160230FB00FC
:1009E000FF30FA00FB0BF52CF82CFA0BF52CF22C4F
:1009F0000730FA00FA0BFA2C0000BE013E08F000A6
:100A0000080003138312BE01BF013F08123C031DFF
:100A10000B2D3E088E3C031C1F2D3B257008003A11
:100A20000319132D1F2D3F08123A031D192D8E3067
:100A30003E0603191F2DBE0A0319BF0A052D1230E9
:100A40003F02031D252D8F303E02031C2A2D7B30D3
:100A5000BD00382D831611141108F1000130F10585
:100A60007108003A0319362D00002C2D8312BD01A8
:100A70003D08F000080003138312C0018316140818
:100A8000F100003071190130F1007108003A031DC6
:100A9000532D1F301105F1007108003A031D532D2D
:100AA000FF308312C0000313831203138312400824
:100AB000F00008000313831691150330FB00FF308C
:100AC000FA00FB0B642D672DFA0B642D612D10309D
:100AD000FA00FA0B692D0000000083128C11130834
:100AE000BE003E08F0000800031383123D08930087
:100AF0000330FB00FF30FA00FB0B7F2D822DFA0B39
:100B00007F2D7C2D1030FA00FA0B842D00000000A0
:100B10008C11BE013E08F000080003138316141365
:100B200094130716871538308312940008000313B6
:100B3000831611150800FF3FFF3FFF3FFF3FFF3FB8
:02400E007A3FF7
:00000001FF
